:020000040800F2
:10000000480D00209101000833120008850B0008FC
:100010002F12000823080008F7290008000000003C
:10002000000000000000000000000000F51D0008B6
:10003000270800080000000059150008091F0008E3
:10004000AB010008AB010008AB010008AB010008E0
:10005000AB010008AB010008AB010008290800084B
:10006000AB010008AB010008AB010008AB010008C0
:10007000AB010008AB010008AB010008AB010008B0
:10008000AB010008AB010008AB010008AB010008A0
:10009000AB010008AB010008AB010008AB01000890
:1000A000AB010008AB010008AB010008AB01000880
:1000B000752200088D220008C5230008AB01000846
:1000C000AB010008AB010008AB010008AB01000860
:1000D000AB010008D5270008AB010008AB01000800
:1000E000AB010008AB010008AB01000800F002F80A
:1000F00000F03FF80AA090E8000C82448344AAF183
:100100000107DA4501D100F034F8AFF2090EBAE880
:100110000F0013F0010F18BFFB1A43F0010318473B
:100120004488000064880000103A24BF78C878C171
:10013000FAD8520724BF30C830C144BF04680C60ED
:10014000704700000023002400250026103A28BF35
:1001500078C1FBD8520728BF30C148BF0B60704739
:10016000642900F06780002070471FB51FBD10B5DF
:1001700010BD00F02BFB1146FFF7F7FF04F0F4FD74
:1001800000F049FB03B4FFF7F2FF03BC03F087F86C
:100190000948804709480047FEE7FEE7FEE7FEE71B
:1001A000FEE7FEE7FEE7FEE7FEE7FEE70448054957
:1001B000054A064B704700000D1F0008ED000008BF
:1001C00048070020480D0020480900204809002069
:1001D000704710B54C1084EA530404D54042C1F175
:1001E000000138BF491E1B4204D55242C3F100032F
:1001F00038BF5B1E00F0B0F914F0804F04D04042CD
:10020000C1F1000138BF491E14F0004F04D0524222
:10021000C3F1000338BF5B1E10BD00000FB40449DA
:1002200010B503AA029800F073FA10BC5DF814FB35
:100230009C0000202DE9F041064600241068752935
:10024000314616A510D0AFF30080002802DA4042F4
:1002500013A507E031688A0701D512A502E0490716
:1002600004D511A5012401E0AFF3008000210A228A
:1002700006F1240709E0B0FBF2FCB0FBF2F302FB4D
:100280001C00303078541846491C0028F3D123460E
:100290002A463046BDE8F04100F0E0B90000000019
:1002A0002D0000002B000000200000002DE9F05F71
:1002B000894604464FF0000ADFF824B1FB44C0F839
:1002C00020A02046E168884700287DD0252806D058
:1002D000D4E901219047206A401C2062F1E7002503
:1002E0005F462046E16888472028064607DB312E16
:1002F00005D2B81910F8200C08B10543F1E7A8079A
:1003000001D525F00405C4F81CA00027C4F818A0E6
:100310002A2E09D0304602F0BBFF38B304EB870821
:10032000303EC8F8186019E059F8041B204604EB69
:1003300087029161E1688847012F064618D1E0697C
:10034000002820DA25F020051DE0D8F8180000EB81
:10035000800006EB40003038C8F818002046E168FD
:100360008847064602F094FF0028EED1012F0AD0FC
:100370002E2E08D12046E16888477F1C0646022FB2
:1003800045F02005C4DBA069002803DA404245F0AF
:100390000105A061E80701D025F01005A6B1A6F17E
:1003A0004100192802D8203645F400654A463146F6
:1003B000204625604D46FFF7D3FE60B1012807D0E7
:1003C000ED1D25F0070000E007E000F1080978E7DF
:1003D00005F1040975E730467AE7206ABDE8F09F29
:1003E0003685000040EA010310B59B070FD1042AAF
:1003F0000DD310C808C9121F9C42F8D020BA19BAF0
:10040000884201D9012010BD4FF0FF3010BD1AB154
:10041000D30703D0521C07E0002010BD10F8013BA9
:1004200011F8014B1B1B07D110F8013B11F8014BD0
:100430001B1B01D1921EF1D1184610BD10B5431CF3
:1004400002E010F8011B71B18107FAD14FF00132BF
:1004500002C88C1A8C4314EAC211F9D0C01A0A06D9
:1004600003D0C01E10BDC01A10BD0A0401D0801EEA
:1004700010BD0902FCD0401E10BD02F0FF0343EA8C
:10048000032242EA024200F002B84FF000020429BF
:10049000C0F0128010F0030C00F04E81CCF1040C7F
:1004A000BCF1020F18BF00F8012BA8BF20F8022BE7
:1004B000A1EB0C0100F040B95FEAC17C24BF00F859
:1004C000012B00F8012B48BF00F8012B70470000FA
:1004D0004FF0013C50F8042B51F8043B9A4221D1D3
:1004E000A2EB0C03934313EACC1317D150F8042B5F
:1004F00051F8043B9A4215D1A2EB0C03934313EA43
:10050000CC130BD150F8042B51F8043B9A4209D17B
:10051000A2EB0C03934313EACC13DBD04FF00000A3
:10052000704700BFD01A01BAB1FA81F101F0180189
:1005300022FA01F0CB40C1F12001DBB2C0B2C01AF7
:100540002CFA01F3D11A914311EAC311E6D1704795
:10055000704770477047704753EA020C00F069809B
:100560002DE9F04B4FF00006002B1FBFB3FA83F5C7
:1005700003FA05F424FA05F65E4012BF1643B2FAF8
:1005800082F502FA05F4C5F120051EBF22FA05FC2A
:1005900044EA0C04203556EA044C4FEA144418BFD0
:1005A000641C4FF000084FF00009904271EB030CFF
:1005B00039D3002919BFB1FA81F701FA07F6B0FA69
:1005C00080F700FA07F6C7F120071EBF20FA07FCE4
:1005D00046EA0C062037B6FBF4FCA7EB0507103FF4
:1005E00007F01F0BCBF120060CFA0BFB2CFA06F6DA
:1005F00044BFB3460026202FA4BF5E464FF0000B39
:100600005BEA060C08BF4FF0010B19EB0B09ABFBC3
:10061000027C48EB0608C01B06FB02CC0BFB03CC9C
:1006200071EB0C01C1E70B46024641464846BDE866
:10063000F08B13B54FF000004FF00001AFF30080D6
:10064000BDE81C40704710B500F09CF8006810BD74
:1006500010B5044600F096F8046010BD2DE9F0478F
:100660000D4699469246044600F124080168880622
:1006700004D5E06921F01001216000E00120A842CA
:1006800001DD471B00E00027A1697A1902EB090090
:10069000081AA0612078C00602D42046AFF300807B
:1006A000002608E0D4E901211AF806009047206AE4
:1006B000401C761C20624E45F4DB2078C0060AD52B
:1006C0002046AFF3008006E0D4E9012130209047B6
:1006D000206A401C2062381EA7F10107F4DC07E005
:1006E000D4E9012118F805009047206A401C2062D7
:1006F000281EA5F10105F3DC2046AFF30080207829
:10070000000602D50220BDE8F0870120FBE70000CB
:10071000074B70B50D467B4400F03DF80446284673
:1007200000F04CF810B14FF0FF3070BD204670BDA6
:10073000373F00004FF0000200B51346944696463E
:10074000203922BFA0E80C50A0E80C50B1F12001E4
:10075000BFF4F7AF090728BFA0E80C5048BF0CC092
:100760005DF804EB890028BF40F8042B08BF7047F0
:1007700048BF20F8022B11F0804F18BF00F8012B62
:100780007047000000487047E406002001694A1CD9
:1007900002610878704700B58FB0CDE901310021C2
:1007A000059105497944CDE9031011466846FFF7E4
:1007B0007DFD0FB000BD0000E5FFFFFF007B00F0F6
:1007C0008000704700487047E40600207546FFF738
:1007D000F9FFAE4605006946534620F007008546FE
:1007E00018B020B5FFF7E2FCBDE820404FF000064E
:1007F0004FF000074FF000084FF0000B21F0070109
:10080000AC46ACE8C009ACE8C009ACE8C009ACE84B
:10081000C0098D4670470446AFF300802046FFF7BD
:10082000B1FC00BFFEE7704710B5022000F008F8E9
:1008300002480068401C0149086010BD24000020E7
:1008400001490860704700001404014000B587B0FA
:100850000121042000F092FE0121084600F07EFEF6
:1008600028208DF81B000320ADF8180006A91E48AB
:1008700000F0B0F803A801F0A3FF0020ADF81200CB
:10088000ADF80E004FF6FF70ADF810000020ADF887
:100890000C0003A94FF0804001F040FF00231A46EE
:1008A00003214FF0804001F0C8FD684601F050FE82
:1008B0000A20ADF808006946400701F0F3FD012168
:1008C000880701F099FD01221146900701F049FEC9
:1008D00000214FF0804001F0F3FE0121880701F074
:1008E00091FD07B000BD00000008014000B587B0D1
:1008F0000121082000F042FE0121042000F02EFE1C
:1009000028208DF81B00C020ADF8180006A91C484F
:1009100000F060F803A801F053FF0020ADF81200CA
:10092000ADF80E004FF6FF70ADF810000020ADF8E6
:100930000C0003A9134801F0F1FE00231A4603211D
:10094000104801F07AFD684601F002FE0A20ADF879
:10095000080069460B4801F0A5FD0121094801F096
:100960004BFD01221146074801F0FBFD002105481F
:1009700001F0A6FE0121034801F044FD07B000BDCF
:10098000000C0140000800400B4840790A4A927967
:10099000904201D10020704707484079064A115C17
:1009A00010464079401CC0B25071052801DB002080
:1009B00050710846EFE70000BC0000200448002109
:1009C0000160017100200249487188717047000080
:1009D000BC0000202DE9F041024600250026002041
:1009E00000230024002791F803C00CF00F0591F8B4
:1009F00003C00CF0100CBCF1000F03D091F802C042
:100A00004CEA050591F800C0BCF1000F31D0146824
:100A100000202BE04FF0010C0CFA00F3B1F800C0FD
:100A20000CEA03069E4220D183004FF00F0C0CFA13
:100A300003F7BC4305FA03FC4CEA040491F803C035
:100A4000BCF1280F06D14FF0010C0CFA00FCC2F8E3
:100A500014C00AE091F803C0BCF1480F05D14FF073
:100A6000010C0CFA00FCC2F810C0401C0828D1D3BD
:100A70001460B1F800C0BCF1FF0F34DD54680020F1
:100A80002EE000F1080C4FF0010808FA0CF3B1F861
:100A900000C00CEA03069E4221D183004FF00F0CE8
:100AA0000CFA03F7BC4305FA03FC4CEA040491F882
:100AB00003C0BCF1280F05D100F1080C08FA0CF8AE
:100AC000C2F8148091F803C0BCF1480F07D100F1BF
:100AD000080C4FF0010808FA0CF8C2F81080401C0E
:100AE0000828CED35460BDE8F0810000F0B50A4676
:100AF000002300240021002500F00046B6F1004F3D
:100B000002D11D4EF16901E01B4E7168C0F303452F
:100B100083B200F44016B6F5401F08D121F0706191
:100B2000154E766826F07066134F7E6012E000F472
:100B30008016B6F5801F06D1032606FA05F4A143F8
:100B400041F0706106E0460D360103FA06F6B14346
:100B500041F0706122B1460D360103FA06F63143C9
:100B600000F00046B6F1004F02D1034EF16101E002
:100B7000014E7160F0BD000000000140416170470E
:100B80000161704700BFFEE708B50121082000F0B1
:100B9000F5FC4FF47040ADF8000010208DF8030014
:100BA00003208DF8020069460448FFF713FF4FF455
:100BB00070410248FFF7E2FF08BD0000000C014051
:100BC00010B50121084600F0D9FC01210148FFF7CA
:100BD0008DFF10BD0002300008B50121102000F08B
:100BE000CDFC4FF40050ADF8000010208DF803004C
:100BF00003208DF8020069460448FFF7EBFE4FF42E
:100C000000510248FFF7BCFF08BD00000010014082
:100C100010B50446002C0BDBB4F5E15F01DD4FF4A9
:100C2000E154204604F078F804F1780005F0E2FA87
:100C3000002C0CDA6442B4F5E15F01DD4FF4E154BD
:100C4000204604F07DF804F1780005F0E7FA10BDC5
:100C50002DE9FC4104460D4616466B4606223B2113
:100C6000682000F00EFA0746BFB99DF801009DF814
:100C7000001040EA012000B220809DF803009DF89A
:100C8000021040EA012000B228809DF805009DF87E
:100C9000041040EA012000B230803846BDE8FC81F3
:100CA0002DE9FC4104460D4616466B4606224321BB
:100CB000682000F0E6F90746BFB99DF801009DF8ED
:100CC000001040EA012000B220809DF803009DF84A
:100CD000021040EA012000B228809DF805009DF82E
:100CE000041040EA012000B230803846BDE8FC81A3
:100CF00010B500200E4908600E48006820F47040CE
:100D00000C4908600846006840F440500860002024
:100D10000949C1F8AC0100F011F80120044908604C
:100D200000F00CF800200449C1F8A80110BD000033
:100D3000A8812142040C01400080214210B502200C
:100D400002F086FE10BD000008B50121082000F069
:100D500015FC4FF44060ADF8000010208DF8030042
:100D600003208DF8020069460448FFF733FE4FF474
:100D700040610248FFF704FF08BD0000000C01407D
:100D800010B500200E4908600E48006820F470403D
:100D90000C4908600846006840F440500860012093
:100DA0000949C1F8AC01FFF7C9FF012004490860F7
:100DB000FFF7C4FF00200449C1F8A80110BD0000DE
:100DC000A8812142040C01400080214270B50546F3
:100DD00000241648006820F4704014490860084652
:100DE000006840F400400860002614E0002010492C
:100DF0000860FFF7A3FF01200E49C1F8A8016006B3
:100E0000040E0B487C38006808B1601CC4B2FFF7C0
:100E100095FF701CC6B2082EE8DB15B9FFF7B0FFCE
:100E200001E0FFF765FF204670BD0000040C0140A3
:100E3000A88121420080214270B504461248006812
:100E400020F47040104908600846006840F44050A3
:100E5000086000200D490860002512E0E0090B49F8
:100E6000091D08606006040E01200949C1F8A801A7
:100E7000FFF764FF002005490860FFF75FFF681C6B
:100E8000C5B2082DEADB70BD040C0140A8812142E7
:100E90000080214210B50E48006820F470400C49D3
:100EA00008600846006840F4405008600120094985
:100EB00008600949C1F8A801FFF740FF0020054973
:100EC0000860FFF73BFF00200349C1F8A80110BDEF
:100ED000040C0140AC8121420080214210B50E4833
:100EE000006820F470400C4908600846006840F42F
:100EF000405008600020094908600949C1F8AC0168
:100F0000FFF71CFF0120054908600549C1F8AC0145
:100F1000FFF714FF10BD0000040C0140A88121421E
:100F20000080214210B500241448006820F470406D
:100F3000124908600846006840F40040086001203B
:100F40000F490860FFF7FAFE01200E49C1F8A80119
:100F5000FFF7F4FE07E0601CC4B2FA2C03DDFFF7D4
:100F6000BDFF012010BD0648803800680028F2D17E
:100F70000349091F086000BFF4E70000040C0140AA
:100F8000AC8121420080214238B50121084600F0A1
:100F9000F5FA0121042000F0F1FA4FF40040ADF819
:100FA000000010208DF8030003208DF80200694630
:100FB0002248FFF70FFD01212148FFF797FD002090
:100FC00020490860FFF7C0FE80216B2000F0DDF8AB
:100FD000642002F017FD00216B2000F0D6F80320FA
:100FE00000F091F8002000F086F8322000F0B0F810
:100FF0000021382000F0C9F800216A2000F0C5F86F
:101000000021232000F0C1F88021372000F0BDF836
:10101000752000F019F80446682C0BD101216B20D3
:1010200000F0B3F800216C2000F0AFF8322000F09F
:101030008FF801E0012038BD0020FCE700080140E6
:1010400000023000BC01214270B50446FFF722FFC8
:10105000D020FFF7F1FEFFF765FF2046FFF7ECFE1B
:10106000FFF760FFFFF716FFD120FFF7E5FEFFF760
:1010700059FF0020FFF7AAFE0546FFF72FFF28467D
:1010800070BD2DE9F04106460F4614461D46FFF798
:1010900001FF002141EA4601C8B2FFF7CDFEFFF78C
:1010A00041FF20B1FFF71AFF0120BDE8F08138466B
:1010B000FFF7C2FEFFF736FFFFF7ECFE012101EB61
:1010C0004601C8B2FFF7B8FEFFF72CFF0DE0012C78
:1010D00004D10020FFF77AFE287003E00120FFF71B
:1010E00075FE2870601EC4B26D1C002CEFD1FFF796
:1010F000F5FE0020D9E710B50446E006010E1C20DD
:1011000000F043F810BD10B50446E006010E1B20A8
:1011100000F03BF810BD70B504460025BC2C01DB87
:10112000012510E0622C01DB02250CE02A2C01DBFA
:10113000032508E0142C01DB042504E00A2C01DB64
:10114000052500E0062529461A2000F01EF870BD8E
:1011500070B50446B4F57A7F01DD4FF47A74042C3F
:1011600000DA04244FF47A7090FBF4F0401EC5B20C
:101170002946192000F009F80546264604EBD671E9
:10118000C1F34F00FFF7C7FF70BD70B505460C46B1
:10119000FFF780FED020FFF74FFEFFF7C3FE18B128
:1011A000FFF79CFE012070BD2846FFF745FEFFF7C4
:1011B000B9FE2046FFF740FEFFF7B4FE18B1FFF777
:1011C0008DFE0120EFE7FFF789FE0020EBE72DE918
:1011D000F04105460E4617469846FFF75BFE002194
:1011E00041EA4501C8B2FFF727FEFFF79BFE20B199
:1011F000FFF774FE0120BDE8F0813046FFF71CFECA
:10120000FFF790FE00240CE018F80400FFF714FE2E
:10121000FFF788FE18B1FFF761FE0120EBE7601CC5
:10122000C4B2BC42F0DBFFF759FE0020E3E700BF89
:10123000FEE7704770B5002100230F22C47804B385
:10124000154C246804F4E064C4F5E064210AC1F19B
:101250000403CA40447804FA03F18478144021431B
:1012600009010E4C0678A155047804F01F050124ED
:10127000AC4005786D11AD0005F1E025C5F80041E1
:1012800009E0047804F01F050124AC40044D067801
:10129000761145F8264070BD0CED00E000E400E05A
:1012A00080E100E002490143024A116070470000FA
:1012B0000000FA050CED00E070B5002419E004F11F
:1012C000B001C8B2002100F00DF90021084600F07D
:1012D00009F90021102000F005F9002505E00121A1
:1012E000002000F0FFF8681CC5B2802DF7DB601C01
:1012F000C4B2082CE3DB70BD70B50646002400259F
:1013000000BF19E004F1B001C8B2002100F0EAF812
:101310000021084600F0E6F80021102000F0E2F875
:10132000002506E006EBC501085D012100F0DAF8B2
:101330006D1C802DF6DB641C082CE3DB70BD000007
:101340001CB501210C2000F019F90320ADF80400B0
:1013500010208DF8070003208DF8060001A95348DE
:10136000FFF738FB40F601015048FFF709FCB020B9
:10137000ADF8000010208DF8030003208DF8020066
:1013800069464B48FFF726FBB0214948FFF7F8FBB9
:1013900001214648FFF7F4FB642002F033FB0121F2
:1013A0004248FFF7EBFBC82002F02CFB01213F482D
:1013B000FFF7E6FB0021AE2000F094F8002108467C
:1013C00000F090F80021102000F08CF8002140205F
:1013D00000F088F80021812000F084F80021CF205F
:1013E00000F080F80021A12000F07CF80021C82046
:1013F00000F078F80021A62000F074F80021A82061
:1014000000F070F800213F2000F06CF80021D3209C
:1014100000F068F80021084600F064F80021D520AB
:1014200000F060F80021802000F05CF80021D92055
:1014300000F058F80021F12000F054F80021DA20E3
:1014400000F050F80021122000F04CF80021DB20C1
:1014500000F048F80021402000F044F8002120204E
:1014600000F040F80021022000F03CF800218D201F
:1014700000F038F80021142000F034F80021A420F6
:1014800000F030F80021A62000F02CF80021AF2059
:1014900000F028F80021AF2000F024F8FFF70CFF3F
:1014A0000021084600F006F81CBD0000000C0140B9
:1014B0000008014070B504460D4605F1B001C8B200
:1014C000002100F00FF8102141EA1410002100F073
:1014D00009F804F00F0141F00100002100F002F8CA
:1014E00070BD000070B504460E4626B102211848B2
:1014F000FFF746FB03E002211548FFF73FFB1021F1
:101500001448FFF73BFB002517E020211148FFF7A7
:1015100035FB04F0800020B180210E48FFF730FB3E
:1015200003E080210B48FFF729FB20210948FFF742
:1015300027FB6006040E681CC5B2082DE5DB1021F0
:101540000448FFF71DFB02210148FFF719FB70BD9E
:10155000000C0140000801407047000029B1064A14
:10156000D2690243044BDA6104E0034AD269824340
:10157000014BDA61704700000010024029B1064AB1
:1015800092690243044B9A6104E0034A92698243E0
:10159000014B9A61704700000010024030B50021F5
:1015A0000022002400232D4D6D6805F00C0121B1AF
:1015B000042905D0082923D105E0294D056022E042
:1015C000274D05601FE0254D6D6805F47012234D11
:1015D0006D6805F48034022505EB92421CB9214D5B
:1015E000554305600BE01D4D6D6805F400351DB1D8
:1015F0001C4D5543056002E0194D5543056002E05E
:10160000174D056000BF00BF144D6D6805F0F00177
:101610000909154D6B5C0568DD4045600F4D6D682F
:1016200005F4E061090A104D6B5C4568DD4085609A
:101630000A4D6D6805F46051C90A0B4D6B5C456835
:10164000DD40C560054D6D6805F44041890B074DCF
:101650006B5CC568B5FBF3F5056130BD0010024059
:1016600000127A0000093D00A2000020B200002014
:1016700070B50546022D02D0042D14D10AE04FF0BA
:10168000804000F0FBFE04B200214FF0804001F0EA
:1016900017F80AE0064800F0F1FE04B20021044801
:1016A00001F00EF801E0002400BF00BF204670BD2D
:1016B0000008004010B54FF480610248FEF7E5FED7
:1016C00010BD0000B80200202DE9F04F8BB0044699
:1016D0000E4615464FF0000900200A9082460990F8
:1016E000834600BF0890B44202DA0A9434460A9E48
:1016F000102D00DD1025884800688470A01B8649E5
:101700000968C87084480068C078A84203DB681E76
:1017100081490968C87000F007FA8246BAF1500F93
:101720001FD17D480068007800280ADD7B480078DA
:1017300038B9794800680078401E77490968087010
:1017400039E0754800684078002834DD7348007837
:1017500088BB714800684078401E6F49096848702E
:1017600029E0BAF1200F26D16B48006800786A4959
:101770000968C97888420ADA6848007838B9664842
:1017800000680078401C64490968087013E06248EA
:101790000068417860480068C078281A401E81427D
:1017A00009DA5E48007830B95B4800684078401C30
:1017B000594909684870584800684078564909688E
:1017C0000978084400F0FF0BE000534909684860BD
:1017D000F0005149096888604F48006801794E4817
:1017E00000680078A1EBC000C0B2099086204CA32D
:1017F000012200900020099900F0E8FA062C0FD091
:101800000220009044480068406800F10803424804
:101810000068406800F108017F22002000F0B0F865
:101820006CB1022000903C4800688068431E3A4832
:1018300000688068411E7F22002000F0A1F8284641
:1018400005F0C2F8CDE90601334909684968324A12
:1018500012689268891A01F1080005F0B5F8CDE91F
:101860000401DDE9062304F0E3FE074688460BF198
:10187000010005F092F83A464346CDE9000105F033
:10188000F3F8CDE90401244909684968C81D05F049
:101890009BF8CDE90201DDE9042305F0D5FACDE995
:1018A000060105F04DF80890089805F08DF83A46C5
:1018B0004346CDE9020104F0FFFDCDE9040105F046
:1018C0003FF80790042000907F227C20DDE907315B
:1018D00000F0C9F8012000900F4800684068C31D5F
:1018E0000D4800687F2281687C2000F0BCF84FF032
:1018F00000090BE0CB4501D1012000E0002009499F
:1019000001F8090009F1010000F0FF09A945F1DD26
:101910000BB0BDE8F08F0000D4000020C400002010
:1019200025630000C4060020F0B50B460024802883
:1019300001D2402B00D3F0BD0726A6EBD306F1B2AF
:1019400003F00705C5F107070126BE40F4B24AB10E
:101950000A4E06EBC006765C2643084F07EBC0072D
:101960007E5408E0054E06EBC006765CA643034FA6
:1019700007EBC0077E5400BFDDE70000B80200207F
:101980002DE9FF4F81B081460398A0EB090004B216
:1019900002990498401A05B2002C01DD012000E0F4
:1019A00000200121C1EB400A002D01DD012000E0F3
:1019B00000200121C1EB400B0FFA89F702980FFAC2
:1019C00080F8002000900026002C01DA604200E040
:1019D000204604B2002D01DA684200E0284605B234
:1019E000AC421EDD0FFA89F716E00098401C00900B
:1019F00041463846009B0E9A01F0FEF8701906B277
:101A0000B4EB460F05DC08EB0B000FFA80F8301B37
:101A100006B207EB0A0007B203985044B842E4D17B
:101A20001EE002980FFA80F816E00098401C009023
:101A300041463846009B0E9A01F0DEF8301906B296
:101A4000B5EB460F04DC07EB0A0007B2701B06B2C9
:101A500008EB0B000FFA80F8049858444045E4D195
:101A600005B0BDE8F08F2DE9F84F07460C469046CB
:101A70001E460A9D4FF0000AD14605F0040008B941
:101A8000002D33D1474502D9BA464746D046B44225
:101A900002D9A2463446564615B94FF0000901E076
:101AA0004FF00109B44209D1234642462146384647
:101AB000CDF80090FFF764FFBDE8F88F474508D1E7
:101AC00033463A4621463846CDF80090FFF758FF96
:101AD000F2E708E02346424621463846CDF800901A
:101AE000FFF74EFF641CB442F4D91BE033463A467C
:101AF000214638460095FFF743FF334642463146BC
:101B000038460095FFF73CFF3346424621464046A3
:101B10000095FFF735FF234642462146384600959B
:101B2000FFF72EFF00BFC7E70148007870470000AD
:101B3000C300002010B504462046FFF7DDFB10BDB2
:101B400010B501F03DFFFFF7FBFBFFF7B5FB10BD44
:101B500010B50446FFF7F4FF4FF480610348FEF729
:101B600094FC204600F032F810BD0000B8020020BE
:101B700010B5FEF709FF114908701148006800F020
:101B80002FF80F490968886880470C48007860285A
:101B900012D10C48007878B909480068406858B1FB
:101BA000074800684068064908600020064909683F
:101BB000087005490968487010BD0000C300002086
:101BC000B8000020C4000020D400002000B5024668
:101BD00002480260FEF7F2FE00BD0000B8000020DF
:101BE000F8B5044600BF00BF2068FEF727FC001DC3
:101BF00000EB40004006060EC6F18000C0F347052A
:101C0000206813A3012238210090A81C00F0DEF800
:101C100001203923AA1C194600900620FFF7B0FEC8
:101C20000120A9190090881E392379221946FFF74F
:101C3000A7FE606850B10848007838B9852007A32E
:101C4000012238210090002000F0C0F8F8BD00000B
:101C50005B202573205D0000C40000202563000088
:101C60002DE9FE4F0446884615461E460120029087
:101C700004F0FF0B3146684600F06AF89DF800005A
:101C800030400290A5F12000C5B29DF80200401E30
:101C900047B233E09DF80210019805FB010010F8EF
:101CA00007904FF0000A23E009F0800028B1414678
:101CB0002046029AFFF738FE09E0029808B9012091
:101CC00000E00020024641462046FFF72DFE4FEA85
:101CD00049604FEA1069641CA4EB0B00082803D18B
:101CE0005C4608F1010806E00AF1010000F0FF0A75
:101CF000BAF1080FD8DB00BF781E47B2002FC9DA4F
:101D0000BDE8FE8F2DE9FC410646884614461F4675
:101D100000253946684600F01BF80AE0625D3B4644
:101D200041463046FFF79CFF9DF801000644681CC1
:101D3000C5B2605D0028F1D1BDE8FC8110B5034853
:101D4000FFF7F8FEFFF7B6FC10BD0000B802002058
:101D500029B1012902D0FE2907D101E000BF00BF4F
:101D6000054B0CCBC0E900237047034B0CCBC0E9FB
:101D7000002300BFF8E70000C80000200FB47CB5C6
:101D8000044600251048007800F0020010B17CBC29
:101D90005DF814FB102C00DBF9E7204600F06EFF25
:101DA00001280FD1204600F07FFF054608A80190CA
:101DB00001980090012229460620079B00F096FF1B
:101DC0000020019000BFE2E7C40000200FB47CB502
:101DD00004460D4616460AA8019001980090324626
:101DE00029462046099B00F081FF002001907CBC21
:101DF0005DF814FB704710B500F002F810BD00004C
:101E00000CB50020019000903348006840F4803009
:101E10003149086000BF3048006800F4003000908D
:101E20000198401C0190009818B90198B0F5A06F76
:101E3000F1D12948006800F4003010B10120009071
:101E400001E0002000900098012843D12348006859
:101E500040F01000214908600846006820F00300A7
:101E600008600846006840F0020008601A484068B0
:101E7000194948600846406848600846406840F490
:101E8000806048600846406820F47C10486008463E
:101E9000406840F4E81048600846006840F08070F0
:101EA000086000BF0C48006800F000700028F9D0FE
:101EB0000948406820F00300074948600846406828
:101EC00040F00200486000BF0348406800F00C008A
:101ED0000828F9D10CBD000000100240002002408B
:101EE000042808D14FF0E021096941F004014FF0C6
:101EF000E022116107E04FF0E021096921F00401BF
:101F00004FF0E022116170477047000010B5134890
:101F1000006840F001001149086008464068104917
:101F200008400E494860084600680E4908400B49C1
:101F300008600846006820F4802008600846406871
:101F400020F4FE0048604FF41F008860FFF753FF45
:101F50004FF000600449086010BD0000001002400E
:101F60000000FFF8FFFFF6FE08ED00E0F0B50C46BC
:101F7000154600220021068C4FF6FE773E4006846F
:101F8000028B018C4FF60C7632407E1C06EA03165B
:101F90002E433243104EB0420ED0104EB0420BD002
:101FA000B0F1804F08D00E4EB04205D00D4EB04279
:101FB00002D00D4EB04206D14FF6FD76314044F0CE
:101FC0000106314305E04FF6F576314044F0010655
:101FD000314302830184F0BD002C014000340140F4
:101FE0000004004000080040000C0040F0B50C4622
:101FF0001546002200210026078C4FF6EF7C07EAE9
:102000000C070784028B018C4FF6FF7707EA041652
:1020100040F6FF473A404FF6FF7707EA03373A4367
:102020004FF6FF7707EA05273A43114FB8420ED023
:10203000104FB8420BD0B0F1804F08D00E4FB842CD
:1020400005D00E4FB84202D00D4FB84206D14FF620
:10205000DF77394046F01007394305E04FF65F77E8
:10206000394044F01007394302830184F0BD000079
:10207000002C0140003401400004004000080040F2
:10208000000C0040F0B50C46154600220021002649
:10209000078C4FF6FF6C07EA0C070784828B018CD4
:1020A0004FF6FF7707EA04264FF60C773A404FF6D3
:1020B000FF7707EA03172F433A43114FB8420ED078
:1020C000104FB8420BD0B0F1804F08D00E4FB8423D
:1020D00005D00E4FB84202D00D4FB84206D14FF690
:1020E000FF57394046F48077394305E04FF2FF57F8
:1020F000394044F48077394382830184F0BD000085
:10210000002C014000340140000400400008004061
:10211000000C0040F0B50C461546002200210026B8
:10212000078C4EF6FF7C07EA0C070784828B018C34
:102130004FF6FF7707EA043640F6FF473A404FF67E
:10214000FF7707EA05273A434FF6FF7707EA033799
:102150003A43114FB8420ED0104FB8420BD0B0F1F5
:10216000804F08D00E4FB84205D00E4FB84202D073
:102170000D4FB84206D14DF6FF77394046F48057EF
:10218000394305E047F6FF57394044F48057394357
:1021900082830184F0BD0000002C01400034014026
:1021A0000004004000080040000C004030B589B039
:1021B00005460C460121C802FFF7E0F90121052080
:1021C000FFF7DCF94FF41060ADF8200018208DF80F
:1021D000230003208DF8220008A92448FEF7FAFB0B
:1021E000A8B2ADF81800A0B2ADF814000020ADF808
:1021F0001A00ADF8160005A91D4800F08FFA6020FE
:10220000ADF804000020ADF80C000120ADF8060088
:102210000020ADF80A0001A9154800F0ABF96020D4
:10222000ADF804000020ADF80C000120ADF8060068
:102230000020ADF80A0001A90D4800F0F1F90121D4
:102240000B4800F0EBF80821094800F0DFF90821FD
:10225000074800F023FA0121054800F0C1F80121E8
:10226000034800F0CFF809B030BD0000000801407D
:10227000002C014010B50121880700F002F918B1C7
:102280000121880700F0BBF810BD000070B50121E6
:10229000254800F0F6F8012844D12020FEF7D0FAB6
:1022A000224A2349234802F0B1FE234A2349244805
:1022B000FEF7CEFC234A24492448FEF7F1FC022015
:1022C000FFF7D6F94042224908600420FFF7D0F911
:1022D00020490860084602681D4801681E480068D9
:1022E00000F08CFB1D4908601848B0F9000005F0AB
:1022F00061F8044619490968194A1268881805F0F6
:1023000059F8054622460A480168284600F0F2FBC3
:102310001449086008460068FEF77AFC012102486B
:1023200000F06DF870BD00000004004008000020BF
:102330000400002000000020100000200E000020FB
:102340000C000020160000201400002012000020C5
:10235000200000201C000020580000204C0000201D
:1023600054000020480000207FB505460C4601219E
:102370000220FFF7F3F8ADF80850ADF80440002054
:10238000ADF80600ADF80A0001A90D4800F0C6F945
:10239000012211460A4800F0E4F81D208DF80000E3
:1023A00003208DF801008DF8020001208DF8030054
:1023B0006846FEF73FFF0121014800F023F87FBD8A
:1023C0000004004010B50121044800F05AF818B18B
:1023D0000121024800F013F810BD00000008004081
:1023E00021B1028842F08002028004E002884FF6A8
:1023F0007F731A4002807047CA4302827047CA4303
:102400000282704721B1028842F00102028004E09A
:1024100002884FF6FE731A400280704731B1B0F85F
:10242000442042F40042A0F8442005E0B0F84420E3
:10243000C2F30E02A0F844207047F0B50C461546D2
:102440001E460021002200230189028B038C4FF6D7
:10245000F877394021434FF6FC473A4040F20117E4
:102460003A434FF6DD773B404FF6FF7707EA061712
:102470002F433B43018102830384F0BD0146888CD6
:10248000704730B50246002000230024158A05EA73
:102490000103958905EA010413B10CB1012000E0A4
:1024A000002030BD70B505460C46244885420ED04C
:1024B000234885420BD0B5F1804F08D02148854292
:1024C00005D02148854202D02048854200D100E055
:1024D00000BF208850B92389A28861882846FFF769
:1024E00045FDE188284600F0EDF825E02088042825
:1024F0000AD12389A28861882846FFF777FDE18801
:10250000284600F0E8F817E0208808280AD1238937
:10251000A28861882846FFF7B5FDE188284600F0CB
:10252000E7F809E02389A28861882846FFF7F2FDD1
:10253000E188284600F0E5F870BD0000002C01405D
:10254000003401400004004000080040000C00403E
:10255000002101804180012181800021C180018111
:1025600070471AB183890B43838102E083898B43CF
:102570008381704770B5002400220023058C4FF63C
:10258000FE7635400584028C8388048B4FF68F7568
:102590002C40B51E2C400D882C43751E2A400D89F9
:1025A0002A434D882A43144DA8420BD0134DA8420C
:1025B00008D0134DA84205D0124DA84202D0124DAA
:1025C000A84213D14FF6F7752A404D892A434FF69A
:1025D000FB752A408D882A434FF6FF652B404FF646
:1025E000FF552B408D892B43CD892B43838004835A
:1025F000CD888586028470BD002C014000340140E6
:102600000040014000440140004801400A460021CA
:10261000018B4FF6F7731940114301837047000097
:1026200070B5002200230024058C4EF6FF7635405D
:102630000584038C8488828B48F6FF752A404FF608
:10264000FF452A400D884FF6FF7606EA05252A4306
:102650004DF6FF752B400D8906EA05352B434D8855
:1026600006EA05352B430B4DA84202D00A4DA8427D
:1026700008D14BF6FF752C408D894FF6FF7606EAA0
:1026800085152C4384808283CD88A0F84050038434
:1026900070BD0000002C0140003401400A460021BA
:1026A000818B4FF2FF7319404FF6FF7303EA022349
:1026B00019438183704781867047A0F840107047A6
:1026C00081847047028B4FF6F3731A400283028BAA
:1026D0000A4302837047028B4FF2FF331A40028392
:1026E000028B4FF6FF7303EA01231A4302837047FC
:1026F000828B4FF6F3731A408283828B0A43828364
:102700007047828B4FF2FF331A408283828B4FF6E1
:10271000FF7303EA01231A43828370470022028871
:102720001D4B98420ED01D4B98420BD0B0F1804FFC
:1027300008D01B4B984205D01A4B984202D01A4B36
:10274000984204D14FF68F731A404B881A43174BA7
:10275000984207D0164B984204D04FF6FF431A40D8
:10276000CB881A4302808B8883850B8803850A4BAC
:1027700098420BD0094B984208D00E4B984205D096
:102780000D4B984202D00D4B984201D10B7A038633
:102790000123838270470000002C01400034014077
:1027A0000004004000080040000C00400010004001
:1027B0000014004000400140004401400048014036
:1027C0004FF6FF71818000210180C180418001723C
:1027D0007047000010B540F225511D4800F04AF83E
:1027E00010B31B4800F002F9C4B21A48008800F484
:1027F0000040C8B91748008800F4804060B10A2C36
:1028000003D000201349088020E01248008840F4DB
:1028100000401049088019E00D2C06D10D480088B1
:1028200040F480400B49088010E00A480088C0F35B
:102830000D0009490C5407480088401C05490880D0
:1028400008460088C72801DD0020088010BD000070
:1028500000380140940000202801002021B1828925
:1028600042F40052828104E082894DF6FF731A40DF
:102870008281704770B502460024002300250020A5
:1028800040F66A16B14200D100BFC1F3421501F013
:102890001F03012606FA03F3012D02D19689334066
:1028A00006E0022D02D1168A334001E0968A3340B9
:1028B0000C12012606FA04F41688344013B10CB148
:1028C000012000E0002070BDF0B503460024002682
:1028D0000025002040F66A17B94200D100BF184613
:1028E000C1F3421401F01F06012707FA06F5012C77
:1028F00001D10C3004E0022C01D1103000E0143082
:102900001AB107682F43076002E00768AF4307600A
:10291000F0BD00002DE9F04786B005460E460024C4
:10292000A24600BFA1460027B08900B100BF2F46D4
:102930002C8A4CF6FF700440F08804432C82AC894A
:102940004EF6F3100440B08831890843718908437A
:102950000443AC81AC8A4FF6FF400440B089044385
:10296000AC8201A8FEF71AFE1F48874202D1DDF8AB
:1029700010A001E0DDF80CA0A88900F4004040B1EF
:102980000AEBCA0000EB0A1031684900B0FBF1F80D
:1029900007E00AEBCA0000EB0A1031688900B0FBBF
:1029A000F1F86420B8FBF0F004012009642101FB78
:1029B0001089A88900F4004040B1322000EBC90022
:1029C000B0FBF1F000F00700044308E0322000EB18
:1029D00009106421B0FBF1F000F00F0004432C81DA
:1029E00006B0BDE8F0870000003801400146888845
:1029F000C0F30800704700BFFEE700002DE9F84F64
:102A000004460D461646324FA819001B314908608E
:102A10003148006804F0CEFC8346394604F02AFDB4
:102A200081462C48006804F0C5FC834639464FF0C7
:102A30007E5004F027FE5946009004F01BFD8246AC
:102A4000494604F017FB804604F078FC23490860EF
:102A50000846006820490860214800681F49096845
:102A600008441F4908600846006842F21071884215
:102A700001DD084608E01A4800681A49884201DA70
:102A8000084601E0164800681549086008460068D5
:102A900004F090FC834614480168584604F0EAFCB0
:102AA00081460E48006804F085FC83460F480168A3
:102AB000584604F0DFFC8246494604F0DBFA8046C3
:102AC00004F03CFC0A49086008460068BDE8F88F3D
:102AD0003333333F8C00002084000020900000201E
:102AE00080000020F0D8FFFF400000203C000020C4
:102AF000880000202DE9F84F05460E4614460021B7
:102B0000204604F0BFFD83460E480168584604F095
:102B1000B1FC81463146284604F0A9FD83460A48A7
:102B2000006804F047FC5946009004F0A3FC82467C
:102B3000494604F09FFA804604F000FC07463846F8
:102B4000BDE8F88F380000203400002070B5042262
:102B500000210620FEF7B8FD1348006804F05EFA75
:102B6000044622460B4611A10320FFF707F913483C
:102B700013A102680020FFF701F91548006804F06E
:102B80004DFA044622460B4612A10120FFF7F6F843
:102B90001448006804F042FA044622460B4612A18B
:102BA0000220FFF7EBF870BD4000002056656C6F07
:102BB000636974795F4B693D25660000340000202D
:102BC000566572746963616C5F4B703D25640000EB
:102BD00038000020566572746963616C5F4B643D18
:102BE000256600003C00002056656C6F63697479AF
:102BF0005F4B703D256600002DE9F04106460F460B
:102C000015461C4605F0030030B1012829D00228E2
:102C100008D0032826D114E0002239463046FEF7BA
:102C200083FE25E004F0010028B101223946304638
:102C3000FEF77AFE04E0002239463046FEF774FEC5
:102C400016E004F00300022805D30122394630467D
:102C5000FEF76AFE04E0002239463046FEF764FEC5
:102C600006E000BF012239463046FEF75DFE00BF98
:102C700000BFBDE8F0817047704700000146094879
:102C800000684078081A0AD4064800684078081A94
:102C9000044A1268D278904201DC0120704700207B
:102CA000FCE70000D4000020014605480068807859
:102CB000401A034A126852781044C000704700005E
:102CC000D4000020490050EAC12018BF04204A0D5A
:102CD00018BF40F0010040F2FF72B2EB515F08BF35
:102CE00040F00200012808BF052070472DE9FF4F82
:102CF0009FB01D461F9800F0FF0800201C90032085
:102D00001B9001200C90219908A8FFF721F80020C2
:102D10001290109049E215F8011B4CB204B949E237
:102D2000252C0BD0E2B24046DDE92013FEF798FFD8
:102D30009DF82100404400F0FF0831E20020814668
:102D4000834600BF199015F8011B4CB2302C05D1F9
:102D50004FF0010915F8011B4CB20EE02D2C05D1E6
:102D60004FF0020915F8011B4CB206E02E2C04D1DD
:102D700001201C9015F8011B4CB218E01C9801288A
:102D80000BD1199800EB800004EB40003038C0B242
:102D9000199015F8011B4CB209E00BEB8B0004EB0A
:102DA0004000303800F0FF0B15F8011B4CB2302CFE
:102DB00001DB392CE2DD1C98012806D1199807287F
:102DC00001DD072000E019981B906C2C01D04C2CE1
:102DD00004D149F0040915F8011B4CB204B9E9E12A
:102DE0002746612C04DB7A2C02DCA7F1200047B2D5
:102DF0004F2F79D008DC422F77D0432F64D0442F57
:102E000074D0462F73D174E0532F04D0552F6FD058
:102E1000582FF7D121E12C98006813902C98001DB1
:102E20002C904FF0000A03E00AF1010000F0FF0AC5
:102E3000139810F80A000028F6D1CDF83CA01190A4
:102E400009F00200A8B90EE020224046DDE9201377
:102E5000FEF706FF1198401C00B211909DF821006A
:102E6000404400F0FF085046411C01F0FF0A58455D
:102E7000EADB4046DDE92013139AFEF743FF9DF895
:102E800021100F9801FB008000F0FF080F991198A6
:102E9000084400B211900EE020224046DDE92013E4
:102EA000FEF7DEFE1198401C00B211909DF8210043
:102EB000404400F0FF085046411C01F0FF0A58450D
:102EC000EADB119810906BE12C9810F8041BCAB241
:102ED0002C904046DDE92013FEF7C2FE9DF821004C
:102EE000404400F0FF085BE1B0E0ACE0B1E0B7E0E7
:102EF000B0E02C98C01D20F0070001462C9000681F
:102F000049682C9A08322C92CDE90A010022134616
:102F1000DDE90A0103F06CFD0BD21B9840F00800BC
:102F20001B900022A54BDDE90A0103F09DFDCDE9D0
:102F30000A01DDE90A0103F0D3FC00B20E90012082
:102F40000C901B9800F007001A9009E00C9800EB19
:102F50008000400000B20C901A98401EC0B21A9037
:102F60001A98401E0028F1D50E9803F016FDCDE901
:102F70000001DDE90A2303F075FECDE904010C9898
:102F800003F00BFDCDE90201DDE9042303F06CFD44
:102F9000CDE9060103F0A4FC00B20D9000261B98B9
:102FA00000F007001A901CE00D98A0B10A210D98BE
:102FB00090FBF1F201FB120047B20D9890FBF1F08B
:102FC00000B20D9007F1300042B23046711CCEB213
:102FD00014A90A5405E030223046711CCEB214A95F
:102FE0000A541A98411EC9B21A910028DCD12E2227
:102FF0003046711CCEB214A90A5400BF0A210E98A3
:1030000090FBF1F201FB120047B20E9890FBF1F039
:1030100000B20E9007F1300042B23046711CCEB2C1
:1030200014A90A540E9808B1102EE7D31B9800F08B
:10303000080028B12D223146701CC6B214A8425493
:1030400000201C906AE002201D9017E008201D90CF
:1030500014E000BF0A201D9010E010201D900DE02C
:10306000E2B24046DDE92013FEF7FAFD9DF82100AB
:10307000404400F0FF080120109091E000BF09F0EB
:10308000040028B12C9800682C99091D2C910CE0A3
:10309000442F05D12C9800682C99091D2C9104E02F
:1030A0002C9800682C99091D2C911890442F08D158
:1030B000189800F0004020B118984042189049F04C
:1030C0000809002600BF1D991898B0FBF1F201FB1A
:1030D000120047B21D991898B0FBF1F01890092F13
:1030E00006DD782C01D1272000E00720384447B2C4
:1030F00007F1300042B23046711CCEB214A90A5416
:10310000189808B1102EDED309F0080028B12D223E
:103110003046711CCEB214A90A5400BFB24609F061
:10312000010008B1302000E0202007460AE0FAB292
:103130004046DDE92013FEF793FD9DF82100404451
:1031400000F0FF0809F0020028B95046411C01F0C8
:10315000FF0A5845EBDB00BF701EC0B2064614A93B
:103160000A5C4046DDE92013FEF77AFD9DF8210058
:10317000404400F0FF08002EEED10AE0FAB24046CB
:10318000DDE92013FEF76CFD9DF82100404400F0BE
:10319000FF085046411C01F0FF0A5845EEDB00BF16
:1031A00010991298084400B212901098401C002800
:1031B0007FF4B1AD00BF23B0BDE8F08F0000F0BFD9
:1031C0002DE9F0414F1E00EBC7010446D1E9000193
:1031D00015461E4637F006020DD02A46334603F048
:1031E00043FC7F1E04EBC703D3E9002303F064F91B
:1031F00037F00602F1D1022F25D0042F13D0062F6D
:1032000018BFBDE8F0812A46334603F02DFCD4E90F
:103210000A2303F051F92A46334603F025FCD4E98A
:10322000082303F049F92A46334603F01DFCD4E98C
:10323000062303F041F92A46334603F015FCD4E98E
:10324000042303F039F92A46334603F00DFCD4E990
:10325000022303F031F92A46334603F005FCD4E992
:103260000023BDE8F04103F027B9012204F0B1BA10
:1032700003F022B9002213461046114603F0D8B9D4
:10328000024A0020110704F0A4BA000001FDFFFF6C
:1032900030380A2801D2012070470020704700BF53
:1032A000704700002DE9FE4F06460F460025684690
:1032B00001F0DCF9002442E056F8240057F824100D
:1032C000A0EB010ABAF1000F01DB514601E0CAF19F
:1032D0000001084604F06EF883464FF08F4103F07A
:1032E00037FF80465DF82400002103F0F3FF16D07D
:1032F0005DF82410404603F02BFF82464FF07E51CC
:1033000004F0C0F9814629F0004A0F48416A50464E
:1033100004F07CF912D20120A04005430EE00A48D7
:10332000C169404604F072F805D30748016A404677
:1033300004F06CF902D20120A0400543641C032C68
:10334000BADB2846BDE8FE8FD87B00082DE9F04D9A
:103350008D4F21F0004A86B005460C46BA452ADB5F
:10336000AAEB070028430AD08848824501DC1AD11D
:10337000CDB106B02846BDE8F04DFFF776BF844AD0
:10338000844B284603F070FB07460E46824A834B67
:103390002846214603F068FB06B03A463346BDE8AE
:1033A000F04D03F089B80120FDF752F906B0BDE8F1
:1033B000F04DFFF75FBF7A48824542DABAF1795F94
:1033C0000BDA2846FFF77EFC042808BFFFF758FFFA
:1033D000284606B02146BDE8F08D2A460B46104629
:1033E00003F042FB834602466E480E460B4606211A
:1033F0007844FFF7E5FE5A46334603F035FB804636
:1034000069488A465A46334604217844FFF7D8FE75
:103410005A46334603F028FB00223B4603F04CF8A3
:1034200002460B464046514603F002F92A4623461F
:1034300003F01AFB06B02A462346BDE8F04D03F020
:103440003BB8284624F0004100223D463B4603F0AD
:1034500009FC4FF0FF3204F0BCF90646024653481F
:103460000F460B4606217844FFF7AAFE32463B463C
:1034700003F0FAFACDE900014D4832463B460421FB
:103480007844FFF79DFE32463B4603F0EDFA0022FA
:103490002B4603F011F8834602913046394602F07C
:1034A00063FF804643480D46504517DCDDE90001C7
:1034B0005A46029B03F0BCF842462B4603F0D4FA6E
:1034C00042462B4602F0F8FF012204F082F9304A0E
:1034D000304B03F0B9FC304A304B4CE04FF0000A5F
:1034E00052460B46404602F0E7FFCDE90310524634
:1034F0002B461046194603F0B7FA32463B4603F016
:10350000B1FBDDE9033203F093F806460F46DDE92F
:1035100000015A46029B03F08BF88346009101227A
:103520003046394604F055F9194A1A4B03F09AFB14
:1035300006460F4601224046294604F04AF95A46FB
:10354000009B03F091FA32463B4603F07DFC0646B1
:103550000F4601225046294604F03BF90E4DDFF894
:1035600058802A46434603F07DFB32463B4603F033
:1035700079FB2A46434603F075FB002CD8BF81F047
:10358000004106B0BDE8F08D0000F03F0000F07F84
:10359000075C143326A6913C182D4454FB21F93FB7
:1035A0000000E03F145400002A5400009E53000025
:1035B000B45300003333EF3FFB21E93F2DE9F84FCF
:1035C00004460D4621F0004000917349814211DC10
:1035D0007249884201DC06D12CB120462946BDE85B
:1035E000F84FFFF742BE6E48002DCCBF6D496E49C3
:1035F000BDE8F88F6D49814211DD6D498142D8BF28
:103600004FF0FF366DDD20462946FFF75BFB0428AF
:1036100008BFFFF735FE20462946BDE8F88F65490B
:10362000654F25F00045814233DD6449814219DD53
:10363000002632464FF080432046294602F03CFFE8
:1036400080468A4601222046294604F0C2F800221C
:103650003B4603F0F9FB4246534602F0E9FF0446BD
:103660000D463EE001260022BA463B46204629464A
:1036700002F022FF80460F4600225346204629468C
:1036800003F0E2FB42463B4602F0D2FF04460D4601
:1036900027E04B4981421BDDDFF828A102260022EA
:1036A00053462046294603F0DFF900223B4602F04C
:1036B00003FF80460F46002253462046294603F06A
:1036C000C3FB42463B4602F0B3FF04460D4608E00A
:1036D000032622462B4600203B4902F0A9FF044660
:1036E0000D4622462B461046194603F0BDF98B467F
:1036F000824602460B4603F0B7F9074602463348B6
:1037000088460B4606217844FFF75AFD52465B4631
:1037100003F0AAF982462E488B463A4643460521D5
:103720007844FFF74DFD3A46434603F09DF90246C3
:103730000B46002E504659460CDA02F0BDFE2246DA
:103740002B4603F091F901B022462B46BDE8F04F1D
:1037500003F088BA02F0B0FE22462B4603F084F94B
:103760001C4A7A4402EBC603D3E9002303F06CFB46
:1037700022462B4603F068FB174A7A4402EBC60345
:10378000D3E9002303F06EFA009A002AB8BF81F053
:103790000041BDE8F88F0000000010440000F07FF9
:1037A000182D4454FB21F93FFB21F9BF0000DC3FF9
:1037B0000000203E0000F33F0000F03F0000E63F25
:1037C000008003400000F83F0000F0BFB651000049
:1037D0007451000012510000DA5000002DE9F04D44
:1037E0009446CCF1000423F000464CEA0404524F06
:1037F00046EAD4749A46884621F00042BC4206D874
:10380000454240EA050442EAD474BC4204D9BDE80A
:10381000F04D6246FFF72CBDAAF14055A5F17F653A
:1038200055EA0C040BD0022404EAAA74434DDFF8D5
:1038300010E144EAD87452EA000B04D00CE0BDE871
:10384000F04DFFF7BBBE002C14BF012CBDE8F08D7E
:10385000022C30D0032C32D056EA0C0B0AD0BE42D8
:1038600020D1BA4209D126F0804622F08042334668
:10387000114617E000291ADB25E0DFF8C8B0FB4449
:10388000002C04BFDBE90001BDE8F08D012C02BF74
:10389000DBE9000181F00041BDE8F08D022C0AD087
:1038A000032C0CD0BA4212D1B8F1000F0BDA234826
:1038B0002549BDE8F08D28462449BDE8F08D28460D
:1038C0007146BDE8F08D1D482149BDE8F08D921B81
:1038D00012153C2AC4BF19481D490EDCBAF1000F6D
:1038E000BEBF12F13C0F0020014606DB624602F02B
:1038F0009FFE21F00041FFF761FE002C08BFBDE8EC
:10390000F08D012C04BF81F00041BDE8F08D114A1B
:10391000114B022C07D003F097FA2A46BDE8F04D70
:103920000A4B03F091BA03F08FFA2A46BDE8F04D36
:10393000064B03F097B900000000F07F182D4454A7
:10394000FB2109C06E500000FB21F9BFFB2109409B
:10395000FB21F93F075C143326A6A13C2DE9F04179
:103960000446E07800F0C006E07800F03F0560789B
:1039700000F0010098B1EF102846E91705EB5171EE
:10398000C910A5EBC101491C01F0FF080B480068F4
:1039900020B10A48414602683846904700BF607827
:1039A00000F0080030B10548406818B1B011034A72
:1039B000516888470020BDE8F0810000D40600204F
:1039C00010B56FF00400FEF78BFA0A4800680A4948
:1039D000B0FBF1F0094908700846007800EB40019F
:1039E000C1EBC0104FF6FF7101EAC0000449088026
:1039F00010BD00001401002000127A009600002083
:103A0000980000200146114A12884A434FF0E023F3
:103A10005A6100229A611A46126942F001021A6143
:103A200000BF4FF0E022106900F001021AB100F46B
:103A30008032002AF5D04FF0E022126922F0010214
:103A40004FF0E0231A6100229A617047980000202D
:103A50000146114A12784A434FF0E0235A6100228E
:103A60009A611A46126942F001021A6100BF4FF0D2
:103A7000E022106900F001021AB100F48032002A3D
:103A8000F5D04FF0E022126922F001024FF0E0235E
:103A90001A6100229A6170479600002038B50446EA
:103AA00064B120208DF8000028208DF8010030201E
:103AB0008DF8020038208DF8030004E0A3220421D1
:103AC0006846FCF7DAFC6A46042140F69E2002F0C4
:103AD00051FB01F03BFF38BD3EB5044602208DF896
:103AE0000000CA208DF80100E3208DF802000920B3
:103AF0008DF803006A460421682002F03BFBA320F6
:103B00008DF8000004F0400048B1C0208DF801009D
:103B1000C8208DF80200C2208DF8030006E0A32023
:103B20008DF801008DF802008DF8030004F4C070D8
:103B300048B1C4208DF80400CC208DF80500C620C3
:103B40008DF8060006E0A3208DF804008DF805002E
:103B50008DF80600A3208DF807008DF808008DF879
:103B600009006A460A2140F6A72002F003FB04F090
:103B7000030018B120208DF8000002E0D8208DF855
:103B800000006A46012140F6B62002F0F3FA04F084
:103B9000200018B1012000F0ADF802E0002000F094
:103BA000A9F804F4C07008B304F4807060B1B220C6
:103BB0008DF800008B208DF80100B6208DF80200F2
:103BC0009B208DF803000BE0B0208DF800008020D2
:103BD0008DF80100B4208DF8020090208DF80300CC
:103BE0006A46042140F6A22002F0C4FA04F0010063
:103BF00020B3F8208DF800006A4601214FF40B60D5
:103C000002F0B8FAFA21072000F02CFC072000F09F
:103C1000F3FB012000F013FC642000F0F3FC4FF4F0
:103C2000FA7000F002FDC821304800F0A3FB282004
:103C300000F0BCFB0A2000F0CCFB08E0D8208DF897
:103C400000006A4601214FF40B6002F093FA04F081
:103C5000020018B1D9208DF8000002E0D8208DF8BC
:103C600000006A46012140F23D7002F083FA04F040
:103C7000040018B1012000F069F802E0002000F013
:103C800065F804F0100018B10120FFF707FF02E00B
:103C90000020FFF703FF44F008001549488101F0B8
:103CA00055FE00201249887304F0400018B1084600
:103CB000807B801D887304F4C07020B10C48807B29
:103CC000801D0B49887304F0140020B10848807BE4
:103CD00010300749887304F0030020B10448807B4A
:103CE000001D0349887300203EBD000009E3CA029D
:103CF000D40600203EB504466CB10EA1D1E90020E7
:103D00008968CDE9002002916A4609214FF4976045
:103D100002F030FA3EBD0AA2D2E900109268CDE965
:103D2000010200916A4609214FF4976002F022FADD
:103D3000F0E70000B8AAB38DB4980D355D0000001F
:103D4000B8AAAAAAB088C3C5C700000038B50446FF
:103D500064B1C0208DF80000C2208DF80100C4209D
:103D60008DF80200C6208DF8030004E08B220421A8
:103D70006846FCF782FB6A46042140F6982002F070
:103D8000F9F901F0E3FD38BD10B5C8234FF48062A6
:103D9000024940F6F63001F06DFC10BD007C0008D1
:103DA0002DE9F04F8DB00746884615469946DDE966
:103DB000166B0024002030806B49887B5A4605A989
:103DC00001F024FD18B1601E0DB0BDE8F08F66480B
:103DD000807A00F01400002867D09DF814000006D7
:103DE0009DF8151040EA01409DF8161040EA0120A8
:103DF0009DF81710084328609DF8180000069DF8EC
:103E0000191040EA01409DF81A1040EA01209DF87F
:103E10001B10084368609DF81C0000069DF81D10EB
:103E200040EA01409DF81E1040EA01209DF81F1055
:103E30000843A8609DF8200000069DF8211040EA84
:103E400001409DF8221040EA01209DF8231008430C
:103E5000E86004F11000C4B228680014019068689A
:103E600000140290A86800140390E86800140490FD
:103E700001984043029901FB0100039901FB0100F5
:103E8000049901FB010ABAF1706F02DBBAF1885F95
:103E900005DD01F05BFD00203080401E94E7B6F99F
:103EA000000040F48070308000BF2F48807A00F01E
:103EB000400020B305A9601C085C095D40EA0120B0
:103EC00000B2A8F8000005A9E01C095C05AAA01C26
:103ED000105C41EA002000B2A8F8020005A9601DAC
:103EE000095C201D105C41EA002000B2A8F8040023
:103EF000A01DC4B2B6F9000040F0080030801A4896
:103F0000408900F4C07008B305A9601C085C095D15
:103F100040EA012000B2388005A9E01C095C05AA2E
:103F2000A01C105C41EA002000B2788005A9601D49
:103F3000095C201D105C41EA002000B2B880A01D81
:103F4000C4B2B6F9000040F0700030800648807AB4
:103F500000F0030018B105A90819FFF7FFFC484657
:103F600001F01AF800202FE7D406002070B588B0C1
:103F7000064601A801F0D2F9BDF804000021C903EA
:103F800041EA5045C4034448007A00F0030056F863
:103F9000200005904048007A00F0040010B1059818
:103FA000404205903C48007AC0F3C10056F820001A
:103FB00006903948007A00F0200010B1069840427F
:103FC00006903548007AC0F3811056F8200007901B
:103FD0003148008900F4807010B107984042079082
:103FE0000598C117A0FB042301FB043100FB051059
:103FF000810041EA927005900698C117A0FB042346
:1040000001FB043100FB0510810041EA927006902B
:104010000798C117A0FB042301FB043100FB051026
:10402000810041EA927007900598000E8DF8080013
:104030000598000C8DF809000598000A8DF80A0013
:104040000598C0B28DF80B000698000E8DF80C0094
:104050000698000C8DF80D000698000A8DF80E00E9
:104060000698C0B28DF80F000798000E8DF810006A
:104070000798000C8DF811000798000A8DF81200BF
:104080000798C0B28DF8130002AA0C214FF42570D6
:1040900002F070F808B070BDD406002030B585B0CD
:1040A000044616A207CA02AB07C3C82C03DD4FF0B3
:1040B000FF3005B030BDC82090FBF4F0401E85B243
:1040C000280A8DF80000E8B28DF801006A46022146
:1040D00040F2162002F04EF810B14FF0FF30E8E742
:1040E00002AA0C2140F6C12002F044F810B14FF0B2
:1040F000FF30DEE7044884810020DAE7FEF2ABC43B
:10410000AAF1DFDFBBAFDFDFD40600201FB5044616
:104110004848007A00F0030054F820000190454818
:10412000007A00F0040010B101984042019041482B
:10413000007AC0F3C10054F8200002903D48007A94
:1041400000F0200010B10298404202903948007AF5
:10415000C0F3811054F8200003903648008900F421
:10416000807010B10398404203903349019880FB5E
:104170000101800F40EA810001902F49029880FBE5
:104180000110820042EA917002902B49039880FB53
:104190000110820042EA917003900198000E8DF8A0
:1041A00000000198000C8DF801000198000A8DF8BC
:1041B00002000198C0B28DF803006A4604214FF452
:1041C000747001F0D7FF18B14FF0FF3004B010BD8C
:1041D0000298000E8DF800000298000C8DF8010086
:1041E0000298000A8DF802000298C0B28DF8030010
:1041F0006A4604214FF4757001F0BCFF10B14FF016
:10420000FF30E3E70398000E8DF800000398000CE0
:104210008DF801000398000A8DF802000398C0B2DF
:104220008DF803006A4604214FF4767001F0A2FF76
:10423000CCE70000D406002009E3CA0210B586B01E
:10424000044647A00068039046A00068029046A07C
:104250000068019045A00068009004F0030003A9E5
:10426000085C8DF8140003A8C4F3C101405C8DF80C
:10427000150003A8C4F38111405C8DF8160004F00A
:10428000030002A9085C8DF8100002A8C4F3C10164
:10429000405C8DF8110002A8C4F38111405C8DF8D8
:1042A000120005AA032140F2264001F063FF18B175
:1042B0004FF0FF3006B010BD04AA032140F22A409F
:1042C00001F058FF10B14FF0FF30F3E7019805906F
:1042D0000098049004F0040058B19DF8140040F0D8
:1042E00001008DF814009DF8100040F001008DF8D9
:1042F000100004F0200058B19DF8150040F00100B6
:104300008DF815009DF8110040F001008DF81100A6
:1043100004F4807058B19DF8160040F001008DF84B
:1043200016009DF8120040F001008DF8120005AA59
:1043300003214FF4886001F01DFF10B14FF0FF30F2
:10434000B8E704AA032140F2314001F013FF10B195
:104350004FF0FF30AEE7064804810020AAE70000D6
:104360004CCD6C000CC92C003656760026466600F3
:10437000D4060020F8B505460E464FF47A7095FB3A
:10438000F0F000FB06F4200E8DF80000200C8DF8F4
:104390000100200A8DF80200E0B28DF803006A46A1
:1043A00004214FF4AE7001F0E5FEF8BD38B50446C7
:1043B000052094FBF0F084B220128DF80000E0B2EA
:1043C0008DF801006A4602214FF4AD7001F0D2FE73
:1043D00038BD38B50446052094FBF0F084B22012B5
:1043E0008DF80000E0B28DF801006A4602214FF41A
:1043F000AC7001F0BFFE38BD38B504460020009017
:1044000004F0010020B19DF8000040F03000009061
:1044100004F0020020B19DF8000040F00C00009074
:1044200004F0040020B19DF8000040F0030000906B
:104430006A4601214FF4A47001F09CFE38BD38B5E6
:104440000446012C01DA012402E0042C00DD0424DE
:10445000601EC0B200906A46012140F24F1001F088
:1044600089FE38BD2DE9FC4706460F4606F00700D9
:1044700010B1B7F5C86F03DD4FF0FF30BDE8FC8722
:10448000384602F0AFFF8146594902F061FE80468E
:10449000684600F01DFF9DF80000022806D00428A1
:1044A00016D0082826D0102848D135E04FF08D418D
:1044B000404602F0DFFF814602F05CFF84B24D49C6
:1044C000404602F0D7FF814602F054FF85B238E043
:1044D0004FF08C41404602F0CDFF814602F04AFF8A
:1044E00084B24549404602F0C5FF814602F042FFD2
:1044F00085B226E04FF08B41404602F0BBFF81467B
:1045000002F038FF84B23D49404602F0B3FF8146D5
:1045100002F030FF85B214E04FF08A41404602F0CD
:10452000A9FF814602F026FF84B23549404602F0D9
:10453000A1FF814602F01EFF85B202E04FF0FF307E
:104540009CE700BF20128DF80400E0B28DF8050052
:1045500028128DF80600E8B28DF8070006F0010079
:10456000A0B101AA02214FF4EA7001F003FE10B1DC
:104570004FF0FF3082E70DF1060202214FF49270F6
:1045800001F0F8FD10B14FF0FF3077E706F00200C0
:10459000A0B101AA02214FF4EC7001F0EBFD10B1C3
:1045A0004FF0FF306AE70DF1060202214FF49470DC
:1045B00001F0E0FD10B14FF0FF305FE706F00400BE
:1045C000A0B101AA02214FF4EE7001F0D3FD10B1A9
:1045D0004FF0FF3052E70DF1060202214FF49670C2
:1045E00001F0C8FD10B14FF0FF3047E7002045E76C
:1045F00000004843000040460000C0450000404520
:104600000000C04438B50446052094FBF0F085B2A4
:1046100028128DF80000E8B28DF801006A460221E8
:104620004FF4EF7001F0A6FD38BD38B50446052003
:1046300094FBF0F085B228128DF80000E8B28DF8F6
:1046400001006A4602214FF4ED7001F093FD38BD80
:1046500000BF054A128802F04002002AF9D0C2B217
:10466000014B1B1D1A807047003801407CB5054680
:1046700028494968087801AB04220D21FCF701FDA7
:1046800008B107207CBD9DF80700C0F301109DF81C
:10469000041001F0E00140EAE1008DF800009DF80F
:1046A0000700C0F381009DF8051001F0E00140EA29
:1046B000E1008DF801009DF8070000F003009DF86F
:1046C000061001F0E00140EAE1008DF8020000244C
:1046D0001CE01DF8040018B9002045F8240013E080
:1046E0000D4845F8240006E055F824000B4902F077
:1046F000C1FE45F824001DF80400401EC0B20DF8AC
:1047000004000028F0D100BF601CC4B2032CE0DB21
:104710000020B7E7DC0000207B14AE3E1D5A843F2A
:104720002DE9F04F87B005460C46914601208DF8E3
:10473000100000208DF81100FE4A1268917CFD4A9D
:104740005268107804AB0222FCF741FD20B14FF013
:10475000FF3007B0BDE8F08FC820FFF753F9002005
:104760008DF81000F34A1268D17BF24A5268107833
:1047700004AB0122FCF72BFD10B14FF0FF30E8E74E
:10478000EC4A12685179EB4A5268107804AB012266
:10479000FCF71DFD10B14FF0FF30DAE7E54A126873
:1047A000917CE44A5268107804AB0122FCF70FFDBB
:1047B00010B14FF0FF30CCE7DE4A1268D17DDD4A00
:1047C0005268107804AB0122FCF701FD10B14FF0E4
:1047D000FF30BEE7D74A12681179D64A526810787E
:1047E00004AB0122FCF7F3FC10B14FF0FF30B0E74F
:1047F0000C208DF81000CF4A12681179CD4A52680A
:10480000107804AB0122FCF7E2FC10B14FF0FF304E
:104810009FE70F20FFF7F6F8C648806A407A8DF8C8
:104820001000C44A12689178C24A5268107804ABEA
:104830000122FCF7CCFC10B14FF0FF3089E7BD48F6
:10484000806A007A8DF81000BA4A12685178B94A25
:104850005268107804AB0122FCF7B9FC10B14FF09C
:10486000FF3076E7B9F1000F07D0B248806A807A4E
:1048700040F0E0008DF8100004E0AE48806A807AD5
:104880008DF81000AB4A12689179AA4A52681078E4
:1048900004AB0122FCF79BFC10B14FF0FF3058E74E
:1048A000B9F1000F07D0A348806AC07A40F0E00059
:1048B0008DF8100003E0A048C07A8DF810009D4AE2
:1048C0001268D1799B4A5268107804AB0122FCF738
:1048D0007EFC10B14FF0FF303BE7B9F1000F02D082
:1048E000C820FFF78FF840208DF81000914A126819
:1048F0001179904A5268107804AB0122FCF767FCEA
:1049000010B14FF0FF3024E778208DF81000894A6D
:1049100012685179874A5268107804AB0122FCF77B
:1049200056FC10B14FF0FF3013E783498889FFF739
:1049300069F800208DF810007E4A126851797D4A8E
:104940005268107804AB0122FCF741FC10B14FF023
:10495000FF30FEE6774A1268917A764A52681078FC
:1049600004AB0222FCF78DFB10B14FF0FF30F0E6F4
:104970009DF811009DF8101040EA012B0C209BFBC4
:10498000F0F0C6B20020A86068602860A060606097
:104990002060824665E0674A1268D17A654A5268AB
:1049A000107804AB0C22FCF76CFB10B14FF0FF3019
:1049B000CFE69DF811009DF8101040EA012000B2EA
:1049C000ADF808009DF813009DF8121040EA012090
:1049D00000B2ADF80A009DF815009DF8141040EAE9
:1049E000012000B2ADF80C00BDF9081020680844A1
:1049F0002060BDF90A10606808446060BDF90C10C1
:104A0000A0680844A0609DF817009DF8161040EAC1
:104A1000012000B2ADF800009DF819009DF81810B3
:104A200040EA012000B2ADF802009DF81B009DF89D
:104A30001A1040EA012000B2ADF80400BDF90010E0
:104A4000286808442860BDF9021068680844686056
:104A5000BDF90410A8680844A8600AF1010000F03C
:104A6000FF0AB24597DB3448D0F800C02868C11768
:104A7000090441EA10410704624600233846FBF767
:104A8000A8FB32460023CDE90201FBF7A2FB286018
:104A90002948D0F800C06868C117090441EA1041EC
:104AA0000704624600233846FBF793FB3246002397
:104AB000CDE90201FBF78DFB68601F48D0F800C00C
:104AC000A868C117090441EA10410704624600239F
:104AD0003846FBF77EFB32460023CDE90201FBF7A7
:104AE00078FBA8601448D0F804C02168C8170004F7
:104AF00040EA11480F046246002338464146FBF75E
:104B000068FB32460023CDE90201FBF762FB20601F
:104B10000948D0F804C06068C117090441EA10418F
:104B20000704624600233846FBF753FB3246002356
:104B300004E00000DC000020D87B0008CDE9020181
:104B4000FBF747FB60601148D0F804C0A068C117AC
:104B5000090441EA10410704624600233846FBF786
:104B600038FB32460023CDE90201FBF732FBA0609F
:104B7000A068002804DDA068A0F58030A06003E0F4
:104B8000A06800F58030A0600020E2E5D87B000836
:104B90002DE9FC5F06460F4600253D494968087827
:104BA00001AB03220D21FCF76CFA10B10720BDE820
:104BB000FC9F9DF8040000F01F008DF804009DF894
:104BC000050000F01F008DF805009DF8060000F0BC
:104BD0001F008DF80600002456E056F8240057F810
:104BE0002410A0EB010BBBF1000F01DB594601E0E3
:104BF000CBF10001084602F0DDFB4FF08F41009041
:104C000002F0A6FA814601A8005D68B32149086850
:104C100002F0E8FB834659461F4802F099FA8046A5
:104C200004E01E49404602F025FC804601A8005DD4
:104C3000401EC0B201A908550028F2D1414648469D
:104C400002F086FA83464FF07E5102F01BFD824649
:104C50002AF0004B0F488169584602F0D7FC12D267
:104C60000120A04005430EE00A480169484602F0D1
:104C7000CDFB05D307484169484602F0C7FC02D284
:104C80000120A0400543641C032CA6DB28468EE7C8
:104C9000DC000020D87B000800B04C4554E3853F81
:104CA00010B50446204600F00FF80346E01C00F063
:104CB0000BF843EAC00083B2A01D00F005F843EAF8
:104CC000801083B2184610BD014691F90020002AD9
:104CD00001DD00201EE091F90020002A01DA042005
:104CE00018E091F90120002A01DD012012E091F97C
:104CF0000120002A01DA05200CE091F90220002AA7
:104D000001DD022006E091F90220002A01DA0620E6
:104D100000E007207047000010B50446A1B2054826
:104D2000FDF7C9FC01200449086000200349C1F8CF
:104D3000B40110BD002C0140B0812142008021420D
:104D400010B50446A1B20548FDF7B5FC00200449A2
:104D5000086001200349C1F8B40110BD002C0140D6
:104D6000B081214200802142FBF736FFFEF728FE8A
:104D7000002141F61F40FDF719FAFBF721FF4FF420
:104D8000A060FCF78FFAFCF7FFF8FBF7AFFDFBF72D
:104D90005DFDFBF7F9FE4FF4E13001F00BFB00BFC6
:104DA00000F046FA0028FBD101205F490860C821C5
:104DB0005E48FBF76AFB4FF4FA70FEF723FE00F043
:104DC000E3F8FCF7BDFAFCF7B9FF632140F23F605E
:104DD000FDF7CAFAA6E0FCF7CBFE5548008800288C
:104DE0007DD06420FEF70EFE52A15048FBF770FB09
:104DF00020B9514800680A384F4908604FA14B4814
:104E0000FBF766FB20B94C4800680A304A49086045
:104E10004BA14648FBF75CFB68B94A48006802F0C2
:104E2000FDF80646484A494B02F00EF8044601F0E8
:104E300011FB4449086046A13C48FBF749FB68B9AF
:104E40004048006802F0EAF806463F4A3F4B01F04E
:104E500033FB044601F0FEFA3A4908603DA13348AD
:104E6000FBF736FBA0B93C48006802F0D7F80646CD
:104E70003A4A3B4B01F020FB044601F0EBFA36497D
:104E8000086038493448006802F062F93649086021
:104E900036A12648FBF71CFBA0B92F48006802F09A
:104EA000BDF806462D4A2E4B01F0CEFF044601F018
:104EB000D1FA294908602B492748006802F048F9CF
:104EC000294908602AA11948FBF702FB20B92948A3
:104ED0000068401C2749086027A1144800E01FE033
:104EE000FBF7F6FA20B923480068401E2149086004
:104EF00022A10E48FBF7ECFA10B901202049086006
:104F000020A10A48FBF7E4FA18B94FF0FF301C491A
:104F10000860002006490880C8210448FBF7B5FA5C
:104F2000FCF70CFF57E70000B401224228010020E3
:104F30009400002070300000340000207031000028
:104F400064300000380000207B14AE47E17A943FC3
:104F500064310000693100003C0000209A99999961
:104F60009999B93F00004843400000206930000093
:104F7000680000005400002071000000770000006D
:104F8000580000207300000010B50248FCF7E0FD57
:104F900010BD00005C0000207047000070B50446A2
:104FA000002624F00104184890F8240008B10020DD
:104FB00070BD1548807A10B94FF0FF30F8E71248FD
:104FC000057C807A2040104908740846007CA04285
:104FD00002D04FF0FF3600E0002614B90A48007DE9
:104FE00018B1012001F078F902E0002001F074F915
:104FF0003CB100F0ABFC20B1034805744FF0FF302A
:10500000D6E73046D4E70000DC0000202DE9F04F61
:1050100099B004460D4616464FF07E574FF00008F3
:105020004FF000094FF0000A12A813A918AB0EAAFE
:10503000CDE9001014A916A8FEF7B2FE18B10120A0
:1050400019B0BDE8F08FBDF84C0000F48070002866
:105050007ED00E9802F0AEF983464FF09D4102F0EB
:1050600077F807460F9802F0A5F983464FF09D4167
:1050700002F06EF88046109802F09CF983464FF0DB
:105080009D4102F065F88146119802F093F983463C
:105090004FF09D4102F05CF8824639464FF0804067
:1050A00002F0E8F94946059002F0E4F9414607901C
:1050B0004FF0404002F0DEF95146059002F0DAF977
:1050C0000690079901F0D6FF834601F0A7FFCDE9CE
:1050D0000801FEF73BF94FF06632544BCDE90A0167
:1050E00001F0C2FCCDE90C0101F0B4F920604946A1
:1050F0004FF0804002F0BEF94946029002F0BAF942
:10510000414604904FF0404002F0B4F9414602900D
:1051100002F0B0F90390049902F0B4FA83464FF01C
:105120007E5101F0A7FF059001F078FFCDE908015D
:1051300039464FF0804002F09DF94146039002F05D
:1051400099F9494604904FF0804002F093F900E04D
:1051500068E05146039002F08DF98346049901F00E
:1051600089FF059001F05AFFCDE90601DDE908232A
:10517000FEF734FB4FF066322C4BCDE90A0101F00B
:1051800073FCCDE90C0101F065F9286051465046E9
:1051900002F070F949460490484602F06BF9414626
:1051A0000390404602F066F939460190384602F015
:1051B00061F90090019901F05DFF0290039902F0FE
:1051C00061FA8346049902F05DFA059001F026FF2A
:1051D000CDE908015146384602F04CF949460490A1
:1051E000404602F047F90390049901F043FF4FF065
:1051F0008041059002F03EF9834601F00FFFCDE9B2
:105200000601DDE90823FEF7E9FA4FF06632074BA5
:10521000CDE90A0101F028FCCDE90C0101F01AF9F1
:10522000306001E002200BE7002009E766A64C4051
:1052300070B50024FBF788FD00F024F9002840D168
:10524000782000F02FFFC4B20CB1012070BD78208F
:10525000FFF7A4FEC4B20CB10220F7E7642000F00F
:10526000D3FEC4B20CB10320F0E7FEF78DFDC4B24B
:105270000CB10420EAE71548FFF712FD0546FEF7DA
:10528000DDFFC4B20CB10520E0E740F27310FEF779
:1052900023FCC4B20CB10620D8E76420FEF7FEFE62
:1052A000C4B20CB10720D1E700F0CCFF04460CB12A
:1052B0000820CBE7012000F0A3FDC4B21CB10920F7
:1052C000C4E70A20C2E70020C0E700000801002070
:1052D00001461148407A30B1012807D0022808D091
:1052E00003280CD108E0022008700BE004200870AD
:1052F00008E00820087005E01020087002E04FF078
:10530000FF30704700BF0448C07C18B108784006E1
:10531000000E08700020F4E7DC000020014613486E
:10532000407A30B1012808D002280AD0032810D1D1
:105330000BE04FF4804008800EE041F69C7008803E
:105340000AE04FF48050088006E04FF400600880C7
:1053500002E04FF0FF30704700BF0448C07C10B13E
:105360000888401008800020F5E70000DC000020DD
:1053700001460248007C087000207047DC000020D5
:1053800001460F48007A30B1012807D0022809D021
:1053900003280FD10AE0FA2008800EE04FF4FA70DB
:1053A00008800AE04FF47A70088006E04FF4FA6053
:1053B000088002E00020088000BF00BF0020704786
:1053C000DC00002001460E48007A30B1012807D0E9
:1053D000022808D003280CD108E00A4808600BE036
:1053E0000948086008E00948086005E008480860C6
:1053F00002E04FF0FF30704700BF0020FBE70000E5
:10540000DC000020000003430000834233330342EA
:105410003333834101461248C07A082817D2DFE8A7
:1054200000F01704070A0D101318BC20088013E0C1
:105430006220088010E02A2008800DE014200880F7
:105440000AE00A20088007E00520088004E000BF89
:1054500000BF0020088000BF00BF00207047000090
:10546000DC0000200146064890F8240010B14FF0FF
:10547000FF3070470248C08908800020F9E700002B
:10548000DC0000201CB580208DF80000654A126801
:10549000917C644A526810786B460122FBF797FEB4
:1054A00010B14FF0FF301CBD6420FEF7ABFA0020B6
:1054B0008DF800005B4A1268917C5A4A5268107855
:1054C0006B460122FBF783FE10B14FF0FF30EAE795
:1054D000544A1268917D534A526810786B460622EE
:1054E000FBF7CFFD10B14FF0FF30DCE79DF8050072
:1054F000C007400F9DF8031001F0010140EA410090
:105500009DF8011001F0010140EA010494B1012C61
:1055100003D101214348C17431E0022C03D10021A1
:105520004048C1742BE021463FA0FAF777FE4FF0C8
:10553000FF30B8E73B4A1268D1783A4A526810788F
:105540006B460122FBF79DFD10B14FF0FF30AAE73B
:105550009DF8000000F00F042CB93D48FAF75EFEFC
:105560004FF0FF309FE7042C06D13AA0FAF756FE21
:1055700001212C48C17402E000212A48C174FF2196
:1055800028488172FF2027490872FF21254841726F
:10559000C1724FF6FF71C181FF2101748174012135
:1055A000017380F82210002180F8231041750175E5
:1055B0001630016041608160163880F8241080F850
:1055C0002510C1844FF4FA6000F062FC10B14FF076
:1055D000FF3068E7022000F02BFB10B14FF0FF30E6
:1055E00061E72A2000F0CEFC10B14FF0FF305AE7FF
:1055F000322000F009FD10B14FF0FF3053E70020DA
:10560000FFF7CCFC10B14FF0FF304CE7002000F06A
:1056100051FB10B14FF0FF3045E7002000F042FD94
:10562000002040E7DC000020556E737570706F72CB
:1056300074656420736F6674776172652070726F31
:1056400064756374207265762025642E0A0000005C
:105650001489000848616C662073656E736974690B
:1056600076697479207061727420666F756E642E2D
:105670000A0000002DE9F04385B005460E4690462D
:105680009946294890F8250020B14FF0FF3005B029
:10569000BDE8F08316B94FF0FF30F8E7002423E0AF
:1056A000281B102801DD102000E0281B87B23219CA
:1056B0003946204600F05EFD10B14FF0FF30E6E7BE
:1056C00001AA3946204600F001F910B14FF0FF3031
:1056D000DDE730193A4601A9FAF784FE10B16FF000
:1056E0000100D4E7E01984B2AC42D9DB4FEA2820AC
:1056F0008DF8000008F0FF008DF801000A4A1268DA
:10570000917E094A526810786B460222FBF75FFDD2
:1057100010B14FF0FF30BAE70121034880F825109F
:10572000A0F826900020B2E7DC00002038B504463F
:10573000282C02DD4FF0FF3038BDDCB9002000F02E
:10574000EBFB00208DF8000007208DF801002E4AA9
:105750001268917C2C4A526810786B460222FBF743
:1057600036FD10B14FF0FF30E6E700212648017505
:105770000020E1E7012000F0CFFB20208DF80000A1
:10578000012C06D100208DF80100052000F0FAFB65
:1057900017E0052C06DC01208DF80100052000F043
:1057A000F1FB0EE0142C06DC02208DF801000A202B
:1057B00000F0E8FB05E003208DF80100142000F064
:1057C000E1FB9DF80100072101EB8010C0B28DF8CC
:1057D00001000D4A1268917C0B4A526810786B46A2
:1057E0000222FBF7F4FC10B14FF0FF30A4E70821D0
:1057F0000548817200210173012101750020FFF726
:10580000CDFB002098E70000DC000020F8B504463E
:105810000F4616462C4890F8240010B94FF0FF3080
:10582000F8BD2948807A10B94FF0FF30F8E7264AD2
:105830001268917A244A526810786B460222FBF76C
:1058400020FC10B14FF0FF30EAE79DF801009DF811
:10585000001040EA0125A54203DA00203070401E06
:10586000DEE7194840684088B5EB600F17DD164A3F
:105870001268517C144A526810786B460122FBF77B
:1058800000FC10B14FF0FF30CAE79DF8000000F0B7
:10589000100020B100F05AF86FF00100C0E7E2B24A
:1058A000094B1B68D97A084B5B6818783B46FBF7B5
:1058B000E8FB10B14FF0FF30B2E795FBF4F0401E6B
:1058C00030700020ACE70000DC000020F8B5044692
:1058D0000D46164616B94FF0FF30F8BD1A48807ACB
:1058E00010B94FF0FF30F8E720128DF80000E0B259
:1058F0008DF801009DF80100284413494968498941
:10590000884202DD4FF0FF30E7E70F4A1268117E50
:105910000D4A526810786B460222FBF758FC10B112
:105920004FF0FF30D9E7EAB2074B1B68597D064BB1
:105930005B6818783346FBF7A4FB10B14FF0FF30DB
:10594000CBE70020C9E70000DC00002008B5704864
:10595000807A10B94FF0FF3008BD002000906C4AEB
:105960001268D17B6A4A526810786B460122FBF7B5
:105970002EFC10B14FF0FF30EEE7654A1268517906
:10598000634A526810786B460122FBF720FC10B185
:105990004FF0FF30E0E75E4A126811795C4A5268C6
:1059A00010786B460122FBF712FC10B14FF0FF306C
:1059B000D2E7574890F82400002853D00C200090DC
:1059C000534A12681179524A526810786B46012284
:1059D000FBF7FDFB10B14FF0FF30BDE73220FEF7C3
:1059E00011F8C02000904A48807A00F0010020B1F0
:1059F0009DF8000040F020000090454A126811799F
:105A0000434A526810786B460122FBF7E0FB10B165
:105A10004FF0FF30A0E73E48407C10B102200090DC
:105A200001E0002000903A4A1268D17B384A52685F
:105A300010786B460122FBF7CAFB10B14FF0FF3024
:105A40008AE700200090324A12685179304A526841
:105A500010786B460122FBF7BAFB002855D04FF0B7
:105A6000FF3079E704200090294A12681179284A0A
:105A7000526810786B460122FBF7A9FB10B14FF07A
:105A8000FF3069E72248807C20B92148807A00F005
:105A9000010010B94020009001E0602000901C4AF5
:105AA000126811791A4A526810786B460122FBF786
:105AB0008EFB10B14FF0FF304EE73220FDF7A2FF12
:105AC0001348407C10B10120009001E000200090BC
:105AD0000F4A1268D17B0E4A526810786B46012239
